{
  "_format": "hh-sol-artifact-1",
  "contractName": "Hotel",
  "sourceName": "contracts/Hotel.sol",
  "abi": [
    {
      "inputs": [],
      "name": "book",
      "outputs": [],
      "stateMutability": "payable",
      "type": "function"
    },
    {
      "inputs": [],
      "name": "checkOut",
      "outputs": [],
      "stateMutability": "nonpayable",
      "type": "function"
    },
    {
      "inputs": [],
      "name": "hasBooked",
      "outputs": [
        {
          "internalType": "bool",
          "name": "",
          "type": "bool"
        }
      ],
      "stateMutability": "view",
      "type": "function"
    },
    {
      "inputs": [],
      "name": "maxRooms",
      "outputs": [
        {
          "internalType": "uint256",
          "name": "",
          "type": "uint256"
        }
      ],
      "stateMutability": "view",
      "type": "function"
    },
    {
      "inputs": [],
      "name": "room",
      "outputs": [
        {
          "internalType": "uint256",
          "name": "",
          "type": "uint256"
        }
      ],
      "stateMutability": "view",
      "type": "function"
    },
    {
      "inputs": [],
      "name": "roomsAvailable",
      "outputs": [
        {
          "internalType": "uint256",
          "name": "",
          "type": "uint256"
        }
      ],
      "stateMutability": "view",
      "type": "function"
    }
  ],
  "bytecode": "0x6080604052601460005573f3ba650f3bb16dc176aa30fa2eb07ec0cb7e1b26600160006101000a81548173ffffffffffffffffffffffffffffffffffffffff021916908373ffffffffffffffffffffffffffffffffffffffff16021790555034801561006a57600080fd5b506106ee8061007a6000396000f3fe6080604052600436106100555760003560e01c806305a8da721461005a5780631d66216d146100645780633433523e1461008f5780638f4eb0db146100ba578063cba5751c146100e5578063ec4c6b31146100fc575b600080fd5b610062610127565b005b34801561007057600080fd5b506100796102d2565b60405161008691906105d4565b60405180910390f35b34801561009b57600080fd5b506100a46102d7565b6040516100b191906105d4565b60405180910390f35b3480156100c657600080fd5b506100cf6102e0565b6040516100dc91906105d4565b60405180910390f35b3480156100f157600080fd5b506100fa6102e6565b005b34801561010857600080fd5b50610111610427565b60405161011e9190610559565b60405180910390f35b600080541161016b576040517f08c379a000000000000000000000000000000000000000000000000000000000815260040161016290610574565b60405180910390fd5b600260003373ffffffffffffffffffffffffffffffffffffffff1673ffffffffffffffffffffffffffffffffffffffff16815260200190815260200160002060009054906101000a900460ff16156101f8576040517f08c379a00000000000000000000000000000000000000000000000000000000081526004016101ef90610594565b60405180910390fd5b600160009054906101000a900473ffffffffffffffffffffffffffffffffffffffff1673ffffffffffffffffffffffffffffffffffffffff166108fc349081150290604051600060405180830381858888f19350505050158015610260573d6000803e3d6000fd5b506001600260003373ffffffffffffffffffffffffffffffffffffffff1673ffffffffffffffffffffffffffffffffffffffff16815260200190815260200160002060006101000a81548160ff0219169083151502179055506000808154809291906102cb90610616565b9190505550565b601481565b60008054905090565b60005481565b600080541161032a576040517f08c379a000000000000000000000000000000000000000000000000000000000815260040161032190610574565b60405180910390fd5b600260003373ffffffffffffffffffffffffffffffffffffffff1673ffffffffffffffffffffffffffffffffffffffff16815260200190815260200160002060009054906101000a900460ff166103b6576040517f08c379a00000000000000000000000000000000000000000000000000000000081526004016103ad906105b4565b60405180910390fd5b6000808154809291906103c890610640565b91905055506000600260003373ffffffffffffffffffffffffffffffffffffffff1673ffffffffffffffffffffffffffffffffffffffff16815260200190815260200160002060006101000a81548160ff021916908315150217905550565b6000600260003373ffffffffffffffffffffffffffffffffffffffff1673ffffffffffffffffffffffffffffffffffffffff16815260200190815260200160002060009054906101000a900460ff16905090565b61048481610600565b82525050565b60006104976016836105ef565b91507f416c6c20726f6f6d7320617265206f63637570696564000000000000000000006000830152602082019050919050565b60006104d7601c836105ef565b91507f596f7527766520616c726561647920626f6f6b6564206120726f6f6d000000006000830152602082019050919050565b6000610517601a836105ef565b91507f596f7520646f6e2774206861766520616e7920626f6f6b696e670000000000006000830152602082019050919050565b6105538161060c565b82525050565b600060208201905061056e600083018461047b565b92915050565b6000602082019050818103600083015261058d8161048a565b9050919050565b600060208201905081810360008301526105ad816104ca565b9050919050565b600060208201905081810360008301526105cd8161050a565b9050919050565b60006020820190506105e9600083018461054a565b92915050565b600082825260208201905092915050565b60008115159050919050565b6000819050919050565b60006106218261060c565b9150600082141561063557610634610689565b5b600182039050919050565b600061064b8261060c565b91507fffffffffffffffffffffffffffffffffffffffffffffffffffffffffffffffff82141561067e5761067d610689565b5b600182019050919050565b7f4e487b7100000000000000000000000000000000000000000000000000000000600052601160045260246000fdfea264697066735822122063c9d434621285b000884ca7ee164cbd01145682d76958745cbfa8e06505485a64736f6c63430008000033",
  "linkReferences": {},
  "deployedLinkReferences": {}
}