{
  "_format": "hh-sol-artifact-1",
  "contractName": "Hotel",
  "sourceName": "contracts/Hotel.sol",
  "abi": [
    {
      "inputs": [],
      "name": "book",
      "outputs": [],
      "stateMutability": "payable",
      "type": "function"
    },
    {
      "inputs": [],
      "name": "checkOut",
      "outputs": [
        {
          "internalType": "string",
          "name": "",
          "type": "string"
        }
      ],
      "stateMutability": "nonpayable",
      "type": "function"
    },
    {
      "inputs": [],
      "name": "hasBooked",
      "outputs": [
        {
          "internalType": "string",
          "name": "",
          "type": "string"
        }
      ],
      "stateMutability": "view",
      "type": "function"
    },
    {
      "inputs": [],
      "name": "maxRooms",
      "outputs": [
        {
          "internalType": "uint256",
          "name": "",
          "type": "uint256"
        }
      ],
      "stateMutability": "view",
      "type": "function"
    },
    {
      "inputs": [],
      "name": "room",
      "outputs": [
        {
          "internalType": "uint256",
          "name": "",
          "type": "uint256"
        }
      ],
      "stateMutability": "view",
      "type": "function"
    }
  ],
  "bytecode": "0x6080604052600560005573f3ba650f3bb16dc176aa30fa2eb07ec0cb7e1b26600160006101000a81548173ffffffffffffffffffffffffffffffffffffffff021916908373ffffffffffffffffffffffffffffffffffffffff16021790555034801561006a57600080fd5b506107018061007a6000396000f3fe60806040526004361061004a5760003560e01c806305a8da721461004f5780631d66216d146100595780633433523e14610084578063cba5751c146100af578063ec4c6b31146100da575b600080fd5b610057610105565b005b34801561006557600080fd5b5061006e610223565b60405161007b91906105a4565b60405180910390f35b34801561009057600080fd5b50610099610228565b6040516100a691906105a4565b60405180910390f35b3480156100bb57600080fd5b506100c4610231565b6040516100d19190610542565b60405180910390f35b3480156100e657600080fd5b506100ef6103ad565b6040516100fc9190610542565b60405180910390f35b6000805411610149576040517f08c379a000000000000000000000000000000000000000000000000000000000815260040161014090610564565b60405180910390fd5b600160009054906101000a900473ffffffffffffffffffffffffffffffffffffffff1673ffffffffffffffffffffffffffffffffffffffff166108fc349081150290604051600060405180830381858888f193505050501580156101b1573d6000803e3d6000fd5b506001600260003373ffffffffffffffffffffffffffffffffffffffff1673ffffffffffffffffffffffffffffffffffffffff16815260200190815260200160002060006101000a81548160ff02191690831515021790555060008081548092919061021c90610618565b9190505550565b600581565b60008054905090565b60606000805411610277576040517f08c379a000000000000000000000000000000000000000000000000000000000815260040161026e90610564565b60405180910390fd5b600260003373ffffffffffffffffffffffffffffffffffffffff1673ffffffffffffffffffffffffffffffffffffffff16815260200190815260200160002060009054906101000a900460ff16610303576040517f08c379a00000000000000000000000000000000000000000000000000000000081526004016102fa90610584565b60405180910390fd5b60008081548092919061031590610642565b91905055506000600260003373ffffffffffffffffffffffffffffffffffffffff1673ffffffffffffffffffffffffffffffffffffffff16815260200190815260200160002060006101000a81548160ff0219169083151502179055506040518060400160405280601681526020017f436865636b204f7574205375636365737366756c6c7900000000000000000000815250905090565b6060600260003373ffffffffffffffffffffffffffffffffffffffff1673ffffffffffffffffffffffffffffffffffffffff16815260200190815260200160002060009054906101000a900460ff161561043e576040518060400160405280601281526020017f596f752068617665206120626f6f6b696e6700000000000000000000000000008152509050610477565b6040518060400160405280601981526020017f596f7520646f206e6f742068617665206120626f6f6b696e670000000000000081525090505b90565b6000610485826105bf565b61048f81856105ca565b935061049f8185602086016105e5565b6104a8816106ba565b840191505092915050565b60006104c06016836105ca565b91507f416c6c20726f6f6d7320617265206f63637570696564000000000000000000006000830152602082019050919050565b6000610500601a836105ca565b91507f596f7520646f6e2774206861766520616e7920626f6f6b696e670000000000006000830152602082019050919050565b61053c816105db565b82525050565b6000602082019050818103600083015261055c818461047a565b905092915050565b6000602082019050818103600083015261057d816104b3565b9050919050565b6000602082019050818103600083015261059d816104f3565b9050919050565b60006020820190506105b96000830184610533565b92915050565b600081519050919050565b600082825260208201905092915050565b6000819050919050565b60005b838110156106035780820151818401526020810190506105e8565b83811115610612576000848401525b50505050565b6000610623826105db565b915060008214156106375761063661068b565b5b600182039050919050565b600061064d826105db565b91507fffffffffffffffffffffffffffffffffffffffffffffffffffffffffffffffff8214156106805761067f61068b565b5b600182019050919050565b7f4e487b7100000000000000000000000000000000000000000000000000000000600052601160045260246000fd5b6000601f19601f830116905091905056fea264697066735822122054317e9feb4c67fc5f813d6f23b051b8eed37fa6d3418687f33d7db4ec48e6d564736f6c63430008000033",
  "linkReferences": {},
  "deployedLinkReferences": {}
}